{
  "_format": "hh-sol-artifact-1",
  "contractName": "UserAndModelRegistry",
  "sourceName": "contracts/UserAndModelRegistry.sol",
  "abi": [
    {
      "inputs": [],
      "stateMutability": "nonpayable",
      "type": "constructor"
    },
    {
      "anonymous": false,
      "inputs": [
        {
          "indexed": true,
          "internalType": "uint256",
          "name": "roundNumber",
          "type": "uint256"
        },
        {
          "indexed": false,
          "internalType": "uint256",
          "name": "accuracy",
          "type": "uint256"
        },
        {
          "indexed": false,
          "internalType": "bytes32",
          "name": "modelHash",
          "type": "bytes32"
        },
        {
          "indexed": false,
          "internalType": "string",
          "name": "offChainReference",
          "type": "string"
        },
        {
          "indexed": true,
          "internalType": "address",
          "name": "submitter",
          "type": "address"
        },
        {
          "indexed": false,
          "internalType": "uint256",
          "name": "timestamp",
          "type": "uint256"
        }
      ],
      "name": "ModelUpdated",
      "type": "event"
    },
    {
      "anonymous": false,
      "inputs": [
        {
          "indexed": true,
          "internalType": "address",
          "name": "wallet",
          "type": "address"
        },
        {
          "indexed": false,
          "internalType": "string",
          "name": "username",
          "type": "string"
        }
      ],
      "name": "UserAdded",
      "type": "event"
    },
    {
      "inputs": [
        {
          "internalType": "uint256",
          "name": "_roundNumber",
          "type": "uint256"
        },
        {
          "internalType": "uint256",
          "name": "_accuracy",
          "type": "uint256"
        },
        {
          "internalType": "bytes32",
          "name": "_modelHash",
          "type": "bytes32"
        },
        {
          "internalType": "string",
          "name": "_offChainReference",
          "type": "string"
        }
      ],
      "name": "addModelUpdate",
      "outputs": [],
      "stateMutability": "nonpayable",
      "type": "function"
    },
    {
      "inputs": [
        {
          "internalType": "address",
          "name": "_wallet",
          "type": "address"
        },
        {
          "internalType": "string",
          "name": "_username",
          "type": "string"
        }
      ],
      "name": "addUser",
      "outputs": [],
      "stateMutability": "nonpayable",
      "type": "function"
    },
    {
      "inputs": [],
      "name": "admin",
      "outputs": [
        {
          "internalType": "address",
          "name": "",
          "type": "address"
        }
      ],
      "stateMutability": "view",
      "type": "function"
    },
    {
      "inputs": [],
      "name": "getLatestUpdate",
      "outputs": [
        {
          "internalType": "uint256",
          "name": "roundNumber",
          "type": "uint256"
        },
        {
          "internalType": "uint256",
          "name": "accuracy",
          "type": "uint256"
        },
        {
          "internalType": "bytes32",
          "name": "modelHash",
          "type": "bytes32"
        },
        {
          "internalType": "string",
          "name": "offChainReference",
          "type": "string"
        },
        {
          "internalType": "address",
          "name": "submitter",
          "type": "address"
        },
        {
          "internalType": "uint256",
          "name": "timestamp",
          "type": "uint256"
        }
      ],
      "stateMutability": "view",
      "type": "function"
    },
    {
      "inputs": [
        {
          "internalType": "uint256",
          "name": "index",
          "type": "uint256"
        }
      ],
      "name": "getUpdate",
      "outputs": [
        {
          "internalType": "uint256",
          "name": "roundNumber",
          "type": "uint256"
        },
        {
          "internalType": "uint256",
          "name": "accuracy",
          "type": "uint256"
        },
        {
          "internalType": "bytes32",
          "name": "modelHash",
          "type": "bytes32"
        },
        {
          "internalType": "string",
          "name": "offChainReference",
          "type": "string"
        },
        {
          "internalType": "address",
          "name": "submitter",
          "type": "address"
        },
        {
          "internalType": "uint256",
          "name": "timestamp",
          "type": "uint256"
        }
      ],
      "stateMutability": "view",
      "type": "function"
    },
    {
      "inputs": [],
      "name": "getUpdateCount",
      "outputs": [
        {
          "internalType": "uint256",
          "name": "",
          "type": "uint256"
        }
      ],
      "stateMutability": "view",
      "type": "function"
    },
    {
      "inputs": [
        {
          "internalType": "address",
          "name": "_wallet",
          "type": "address"
        }
      ],
      "name": "getUser",
      "outputs": [
        {
          "internalType": "address",
          "name": "",
          "type": "address"
        },
        {
          "internalType": "string",
          "name": "",
          "type": "string"
        }
      ],
      "stateMutability": "view",
      "type": "function"
    },
    {
      "inputs": [
        {
          "internalType": "uint256",
          "name": "",
          "type": "uint256"
        }
      ],
      "name": "updates",
      "outputs": [
        {
          "internalType": "uint256",
          "name": "roundNumber",
          "type": "uint256"
        },
        {
          "internalType": "uint256",
          "name": "accuracy",
          "type": "uint256"
        },
        {
          "internalType": "bytes32",
          "name": "modelHash",
          "type": "bytes32"
        },
        {
          "internalType": "string",
          "name": "offChainReference",
          "type": "string"
        },
        {
          "internalType": "address",
          "name": "submitter",
          "type": "address"
        },
        {
          "internalType": "uint256",
          "name": "timestamp",
          "type": "uint256"
        }
      ],
      "stateMutability": "view",
      "type": "function"
    },
    {
      "inputs": [
        {
          "internalType": "address",
          "name": "",
          "type": "address"
        }
      ],
      "name": "userExists",
      "outputs": [
        {
          "internalType": "bool",
          "name": "",
          "type": "bool"
        }
      ],
      "stateMutability": "view",
      "type": "function"
    },
    {
      "inputs": [
        {
          "internalType": "address",
          "name": "",
          "type": "address"
        }
      ],
      "name": "users",
      "outputs": [
        {
          "internalType": "address",
          "name": "wallet",
          "type": "address"
        },
        {
          "internalType": "string",
          "name": "username",
          "type": "string"
        }
      ],
      "stateMutability": "view",
      "type": "function"
    }
  ],
  "bytecode": "0x6080604052348015600f57600080fd5b50336000806101000a81548173ffffffffffffffffffffffffffffffffffffffff021916908373ffffffffffffffffffffffffffffffffffffffff160217905550611a6f8061005f6000396000f3fe608060405234801561001057600080fd5b506004361061009e5760003560e01c8063adb4af3e11610066578063adb4af3e14610186578063b1304108146101a9578063b4c2f727146101c5578063c52ed534146101fa578063f851a440146102185761009e565b80630e666e49146100a357806332cb25be146100d35780634b68d431146101085780636f77926b14610124578063a87430ba14610155575b600080fd5b6100bd60048036038101906100b89190610eea565b610236565b6040516100ca9190610f32565b60405180910390f35b6100ed60048036038101906100e89190610f83565b610256565b6040516100ff96959493929190611077565b60405180910390f35b610122600480360381019061011d9190611214565b61041c565b005b61013e60048036038101906101399190610eea565b6106ab565b60405161014c929190611270565b60405180910390f35b61016f600480360381019061016a9190610eea565b610885565b60405161017d929190611270565b60405180910390f35b61018e610951565b6040516101a096959493929190611077565b60405180910390f35b6101c360048036038101906101be919061132c565b610b28565b005b6101df60048036038101906101da9190610f83565b610d53565b6040516101f196959493929190611077565b60405180910390f35b610202610e47565b60405161020f91906113b4565b60405180910390f35b610220610e54565b60405161022d91906113cf565b60405180910390f35b60026020528060005260406000206000915054906101000a900460ff1681565b6000806000606060008060038054905087106102a7576040517f08c379a000000000000000000000000000000000000000000000000000000000815260040161029e90611436565b60405180910390fd5b6000600388815481106102bd576102bc611456565b5b90600052602060002090600602016040518060c0016040529081600082015481526020016001820154815260200160028201548152602001600382018054610304906114b4565b80601f0160208091040260200160405190810160405280929190818152602001828054610330906114b4565b801561037d5780601f106103525761010080835404028352916020019161037d565b820191906000526020600020905b81548152906001019060200180831161036057829003601f168201915b505050505081526020016004820160009054906101000a900473ffffffffffffffffffffffffffffffffffffffff1673ffffffffffffffffffffffffffffffffffffffff1673ffffffffffffffffffffffffffffffffffffffff1681526020016005820154815250509050806000015181602001518260400151836060015184608001518560a001519650965096509650965096505091939550919395565b60008054906101000a900473ffffffffffffffffffffffffffffffffffffffff1673ffffffffffffffffffffffffffffffffffffffff163373ffffffffffffffffffffffffffffffffffffffff16146104aa576040517f08c379a00000000000000000000000000000000000000000000000000000000081526004016104a190611557565b60405180910390fd5b600260008373ffffffffffffffffffffffffffffffffffffffff1673ffffffffffffffffffffffffffffffffffffffff16815260200190815260200160002060009054906101000a900460ff1615610537576040517f08c379a000000000000000000000000000000000000000000000000000000000815260040161052e906115c3565b60405180910390fd5b60405180604001604052808373ffffffffffffffffffffffffffffffffffffffff16815260200182815250600160008473ffffffffffffffffffffffffffffffffffffffff1673ffffffffffffffffffffffffffffffffffffffff16815260200190815260200160002060008201518160000160006101000a81548173ffffffffffffffffffffffffffffffffffffffff021916908373ffffffffffffffffffffffffffffffffffffffff16021790555060208201518160010190816105fd919061178f565b509050506001600260008473ffffffffffffffffffffffffffffffffffffffff1673ffffffffffffffffffffffffffffffffffffffff16815260200190815260200160002060006101000a81548160ff0219169083151502179055508173ffffffffffffffffffffffffffffffffffffffff167fa56e21173460286ea98fc3defc7671b9b8e2ff0c6acea8d6ed30b343724e23fa8260405161069f9190611861565b60405180910390a25050565b60006060600260008473ffffffffffffffffffffffffffffffffffffffff1673ffffffffffffffffffffffffffffffffffffffff16815260200190815260200160002060009054906101000a900460ff1661073b576040517f08c379a0000000000000000000000000000000000000000000000000000000008152600401610732906118cf565b60405180910390fd5b6000600160008573ffffffffffffffffffffffffffffffffffffffff1673ffffffffffffffffffffffffffffffffffffffff1681526020019081526020016000206040518060400160405290816000820160009054906101000a900473ffffffffffffffffffffffffffffffffffffffff1673ffffffffffffffffffffffffffffffffffffffff1673ffffffffffffffffffffffffffffffffffffffff1681526020016001820180546107ed906114b4565b80601f0160208091040260200160405190810160405280929190818152602001828054610819906114b4565b80156108665780601f1061083b57610100808354040283529160200191610866565b820191906000526020600020905b81548152906001019060200180831161084957829003601f168201915b5050505050815250509050806000015181602001519250925050915091565b60016020528060005260406000206000915090508060000160009054906101000a900473ffffffffffffffffffffffffffffffffffffffff16908060010180546108ce906114b4565b80601f01602080910402602001604051908101604052809291908181526020018280546108fa906114b4565b80156109475780601f1061091c57610100808354040283529160200191610947565b820191906000526020600020905b81548152906001019060200180831161092a57829003601f168201915b5050505050905082565b600080600060606000806000600380549050116109a3576040517f08c379a000000000000000000000000000000000000000000000000000000000815260040161099a9061193b565b60405180910390fd5b6000600360016003805490506109b9919061198a565b815481106109ca576109c9611456565b5b90600052602060002090600602016040518060c0016040529081600082015481526020016001820154815260200160028201548152602001600382018054610a11906114b4565b80601f0160208091040260200160405190810160405280929190818152602001828054610a3d906114b4565b8015610a8a5780601f10610a5f57610100808354040283529160200191610a8a565b820191906000526020600020905b815481529060010190602001808311610a6d57829003601f168201915b505050505081526020016004820160009054906101000a900473ffffffffffffffffffffffffffffffffffffffff1673ffffffffffffffffffffffffffffffffffffffff1673ffffffffffffffffffffffffffffffffffffffff1681526020016005820154815250509050806000015181602001518260400151836060015184608001518560a0015196509650965096509650965050909192939495565b60008054906101000a900473ffffffffffffffffffffffffffffffffffffffff1673ffffffffffffffffffffffffffffffffffffffff163373ffffffffffffffffffffffffffffffffffffffff1614610bb6576040517f08c379a0000000000000000000000000000000000000000000000000000000008152600401610bad90611557565b60405180910390fd5b60006040518060c0016040528087815260200186815260200185815260200184848080601f016020809104026020016040519081016040528093929190818152602001838380828437600081840152601f19601f8201169050808301925050505050505081526020013373ffffffffffffffffffffffffffffffffffffffff16815260200142815250905060038190806001815401808255809150506001900390600052602060002090600602016000909190919091506000820151816000015560208201518160010155604082015181600201556060820151816003019081610ca0919061178f565b5060808201518160040160006101000a81548173ffffffffffffffffffffffffffffffffffffffff021916908373ffffffffffffffffffffffffffffffffffffffff16021790555060a0820151816005015550503373ffffffffffffffffffffffffffffffffffffffff16867f1c8333f16dc83c62d78bc0f1900b4e34de480157aa26fd0dd5a86249faa8017c8787878742604051610d439594939291906119eb565b60405180910390a3505050505050565b60038181548110610d6357600080fd5b9060005260206000209060060201600091509050806000015490806001015490806002015490806003018054610d98906114b4565b80601f0160208091040260200160405190810160405280929190818152602001828054610dc4906114b4565b8015610e115780601f10610de657610100808354040283529160200191610e11565b820191906000526020600020905b815481529060010190602001808311610df457829003601f168201915b5050505050908060040160009054906101000a900473ffffffffffffffffffffffffffffffffffffffff16908060050154905086565b6000600380549050905090565b60008054906101000a900473ffffffffffffffffffffffffffffffffffffffff1681565b6000604051905090565b600080fd5b600080fd5b600073ffffffffffffffffffffffffffffffffffffffff82169050919050565b6000610eb782610e8c565b9050919050565b610ec781610eac565b8114610ed257600080fd5b50565b600081359050610ee481610ebe565b92915050565b600060208284031215610f0057610eff610e82565b5b6000610f0e84828501610ed5565b91505092915050565b60008115159050919050565b610f2c81610f17565b82525050565b6000602082019050610f476000830184610f23565b92915050565b6000819050919050565b610f6081610f4d565b8114610f6b57600080fd5b50565b600081359050610f7d81610f57565b92915050565b600060208284031215610f9957610f98610e82565b5b6000610fa784828501610f6e565b91505092915050565b610fb981610f4d565b82525050565b6000819050919050565b610fd281610fbf565b82525050565b600081519050919050565b600082825260208201905092915050565b60005b83811015611012578082015181840152602081019050610ff7565b60008484015250505050565b6000601f19601f8301169050919050565b600061103a82610fd8565b6110448185610fe3565b9350611054818560208601610ff4565b61105d8161101e565b840191505092915050565b61107181610eac565b82525050565b600060c08201905061108c6000830189610fb0565b6110996020830188610fb0565b6110a66040830187610fc9565b81810360608301526110b8818661102f565b90506110c76080830185611068565b6110d460a0830184610fb0565b979650505050505050565b600080fd5b600080fd5b7f4e487b7100000000000000000000000000000000000000000000000000000000600052604160045260246000fd5b6111218261101e565b810181811067ffffffffffffffff821117156111405761113f6110e9565b5b80604052505050565b6000611153610e78565b905061115f8282611118565b919050565b600067ffffffffffffffff82111561117f5761117e6110e9565b5b6111888261101e565b9050602081019050919050565b82818337600083830152505050565b60006111b76111b284611164565b611149565b9050828152602081018484840111156111d3576111d26110e4565b5b6111de848285611195565b509392505050565b600082601f8301126111fb576111fa6110df565b5b813561120b8482602086016111a4565b91505092915050565b6000806040838503121561122b5761122a610e82565b5b600061123985828601610ed5565b925050602083013567ffffffffffffffff81111561125a57611259610e87565b5b611266858286016111e6565b9150509250929050565b60006040820190506112856000830185611068565b8181036020830152611297818461102f565b90509392505050565b6112a981610fbf565b81146112b457600080fd5b50565b6000813590506112c6816112a0565b92915050565b600080fd5b600080fd5b60008083601f8401126112ec576112eb6110df565b5b8235905067ffffffffffffffff811115611309576113086112cc565b5b602083019150836001820283011115611325576113246112d1565b5b9250929050565b60008060008060006080868803121561134857611347610e82565b5b600061135688828901610f6e565b955050602061136788828901610f6e565b9450506040611378888289016112b7565b935050606086013567ffffffffffffffff81111561139957611398610e87565b5b6113a5888289016112d6565b92509250509295509295909350565b60006020820190506113c96000830184610fb0565b92915050565b60006020820190506113e46000830184611068565b92915050565b7f496e76616c696420696e64657800000000000000000000000000000000000000600082015250565b6000611420600d83610fe3565b915061142b826113ea565b602082019050919050565b6000602082019050818103600083015261144f81611413565b9050919050565b7f4e487b7100000000000000000000000000000000000000000000000000000000600052603260045260246000fd5b7f4e487b7100000000000000000000000000000000000000000000000000000000600052602260045260246000fd5b600060028204905060018216806114cc57607f821691505b6020821081036114df576114de611485565b5b50919050565b7f4f6e6c792061646d696e2063616e20706572666f726d2074686973206163746960008201527f6f6e000000000000000000000000000000000000000000000000000000000000602082015250565b6000611541602283610fe3565b915061154c826114e5565b604082019050919050565b6000602082019050818103600083015261157081611534565b9050919050565b7f5573657220616c72656164792065786973747300000000000000000000000000600082015250565b60006115ad601383610fe3565b91506115b882611577565b602082019050919050565b600060208201905081810360008301526115dc816115a0565b9050919050565b60008190508160005260206000209050919050565b60006020601f8301049050919050565b600082821b905092915050565b6000600883026116457fffffffffffffffffffffffffffffffffffffffffffffffffffffffffffffffff82611608565b61164f8683611608565b95508019841693508086168417925050509392505050565b6000819050919050565b600061168c61168761168284610f4d565b611667565b610f4d565b9050919050565b6000819050919050565b6116a683611671565b6116ba6116b282611693565b848454611615565b825550505050565b600090565b6116cf6116c2565b6116da81848461169d565b505050565b5b818110156116fe576116f36000826116c7565b6001810190506116e0565b5050565b601f82111561174357611714816115e3565b61171d846115f8565b8101602085101561172c578190505b611740611738856115f8565b8301826116df565b50505b505050565b600082821c905092915050565b600061176660001984600802611748565b1980831691505092915050565b600061177f8383611755565b9150826002028217905092915050565b61179882610fd8565b67ffffffffffffffff8111156117b1576117b06110e9565b5b6117bb82546114b4565b6117c6828285611702565b600060209050601f8311600181146117f957600084156117e7578287015190505b6117f18582611773565b865550611859565b601f198416611807866115e3565b60005b8281101561182f5784890151825560018201915060208501945060208101905061180a565b8683101561184c5784890151611848601f891682611755565b8355505b6001600288020188555050505b505050505050565b6000602082019050818103600083015261187b818461102f565b905092915050565b7f5573657220646f6573206e6f7420657869737400000000000000000000000000600082015250565b60006118b9601383610fe3565b91506118c482611883565b602082019050919050565b600060208201905081810360008301526118e8816118ac565b9050919050565b7f4e6f207570646174657320617661696c61626c65000000000000000000000000600082015250565b6000611925601483610fe3565b9150611930826118ef565b602082019050919050565b6000602082019050818103600083015261195481611918565b9050919050565b7f4e487b7100000000000000000000000000000000000000000000000000000000600052601160045260246000fd5b600061199582610f4d565b91506119a083610f4d565b92508282039050818111156119b8576119b761195b565b5b92915050565b60006119ca8385610fe3565b93506119d7838584611195565b6119e08361101e565b840190509392505050565b6000608082019050611a006000830188610fb0565b611a0d6020830187610fc9565b8181036040830152611a208185876119be565b9050611a2f6060830184610fb0565b969550505050505056fea2646970667358221220472e2bbce88431f8951a6eca7f2cdf2e2629a0aa29ad43971443239f95d91aa664736f6c634300081c0033",
  "linkReferences": {},
  "deployedLinkReferences": {}
}